{
  "_format": "hh-sol-artifact-1",
  "contractName": "CoffeeMachine",
  "sourceName": "contracts/CoffeeMachine.sol",
  "abi": [
    {
      "inputs": [
        {
          "internalType": "address payable",
          "name": "_owner",
          "type": "address"
        }
      ],
      "stateMutability": "nonpayable",
      "type": "constructor"
    },
    {
      "inputs": [],
      "name": "MinimumValue",
      "type": "error"
    },
    {
      "inputs": [],
      "name": "getTokenBalance",
      "outputs": [
        {
          "internalType": "uint256",
          "name": "",
          "type": "uint256"
        }
      ],
      "stateMutability": "view",
      "type": "function"
    },
    {
      "inputs": [],
      "name": "mintTokens",
      "outputs": [],
      "stateMutability": "payable",
      "type": "function"
    },
    {
      "inputs": [],
      "name": "owner",
      "outputs": [
        {
          "internalType": "address payable",
          "name": "",
          "type": "address"
        }
      ],
      "stateMutability": "view",
      "type": "function"
    },
    {
      "inputs": [
        {
          "internalType": "uint256",
          "name": "price",
          "type": "uint256"
        }
      ],
      "name": "purchaseCoffee",
      "outputs": [],
      "stateMutability": "nonpayable",
      "type": "function"
    },
    {
      "inputs": [
        {
          "internalType": "address",
          "name": "to",
          "type": "address"
        },
        {
          "internalType": "uint256",
          "name": "amount",
          "type": "uint256"
        }
      ],
      "name": "transferTokens",
      "outputs": [],
      "stateMutability": "nonpayable",
      "type": "function"
    }
  ],
  "bytecode": "0x608060405234801561001057600080fd5b50604051610a60380380610a608339818101604052810190610032919061008d565b806000806101000a81548173ffffffffffffffffffffffffffffffffffffffff021916908373ffffffffffffffffffffffffffffffffffffffff160217905550506100ff565b600081519050610087816100e8565b92915050565b60006020828403121561009f57600080fd5b60006100ad84828501610078565b91505092915050565b60006100c1826100c8565b9050919050565b600073ffffffffffffffffffffffffffffffffffffffff82169050919050565b6100f1816100b6565b81146100fc57600080fd5b50565b6109528061010e6000396000f3fe60806040526004361061004a5760003560e01c806382b2e2571461004f5780638da5cb5b1461007a578063bec3fa17146100a5578063ee3f3c00146100ce578063eeb9635c146100f7575b600080fd5b34801561005b57600080fd5b50610064610101565b60405161007191906106d8565b60405180910390f35b34801561008657600080fd5b5061008f610148565b60405161009c919061067d565b60405180910390f35b3480156100b157600080fd5b506100cc60048036038101906100c791906105b4565b61016c565b005b3480156100da57600080fd5b506100f560048036038101906100f091906105f0565b61029e565b005b6100ff610379565b005b6000600160003373ffffffffffffffffffffffffffffffffffffffff1673ffffffffffffffffffffffffffffffffffffffff16815260200190815260200160002054905090565b60008054906101000a900473ffffffffffffffffffffffffffffffffffffffff1681565b80600160003373ffffffffffffffffffffffffffffffffffffffff1673ffffffffffffffffffffffffffffffffffffffff1681526020019081526020016000205410156101ee576040517f08c379a00000000000000000000000000000000000000000000000000000000081526004016101e5906106b8565b60405180910390fd5b80600160003373ffffffffffffffffffffffffffffffffffffffff1673ffffffffffffffffffffffffffffffffffffffff168152602001908152602001600020600082825461023d919061078b565b9250508190555080600160008473ffffffffffffffffffffffffffffffffffffffff1673ffffffffffffffffffffffffffffffffffffffff16815260200190815260200160002060008282546102939190610704565b925050819055505050565b80600160003373ffffffffffffffffffffffffffffffffffffffff1673ffffffffffffffffffffffffffffffffffffffff168152602001908152602001600020541015610320576040517f08c379a0000000000000000000000000000000000000000000000000000000008152600401610317906106b8565b60405180910390fd5b80600160003373ffffffffffffffffffffffffffffffffffffffff1673ffffffffffffffffffffffffffffffffffffffff168152602001908152602001600020600082825461036f919061078b565b9250508190555050565b60008054906101000a900473ffffffffffffffffffffffffffffffffffffffff1673ffffffffffffffffffffffffffffffffffffffff163373ffffffffffffffffffffffffffffffffffffffff161415610408576040517f08c379a00000000000000000000000000000000000000000000000000000000081526004016103ff90610698565b60405180910390fd5b6601c6bf52634000341015610449576040517fa2c48c2a00000000000000000000000000000000000000000000000000000000815260040160405180910390fd5b60006601c6bf526340003461045e919061075a565b905060006601c6bf5263400034610475919061080d565b905060008054906101000a900473ffffffffffffffffffffffffffffffffffffffff1673ffffffffffffffffffffffffffffffffffffffff166108fc82346104bd919061078b565b9081150290604051600060405180830381858888f193505050501580156104e8573d6000803e3d6000fd5b503373ffffffffffffffffffffffffffffffffffffffff166108fc829081150290604051600060405180830381858888f1935050505015801561052f573d6000803e3d6000fd5b5081600160003373ffffffffffffffffffffffffffffffffffffffff1673ffffffffffffffffffffffffffffffffffffffff168152602001908152602001600020600082825461057f9190610704565b925050819055505050565b600081359050610599816108ee565b92915050565b6000813590506105ae81610905565b92915050565b600080604083850312156105c757600080fd5b60006105d58582860161058a565b92505060206105e68582860161059f565b9150509250929050565b60006020828403121561060257600080fd5b60006106108482850161059f565b91505092915050565b610622816107d1565b82525050565b6000610635601e836106f3565b91506106408261089c565b602082019050919050565b60006106586016836106f3565b9150610663826108c5565b602082019050919050565b61067781610803565b82525050565b60006020820190506106926000830184610619565b92915050565b600060208201905081810360008301526106b181610628565b9050919050565b600060208201905081810360008301526106d18161064b565b9050919050565b60006020820190506106ed600083018461066e565b92915050565b600082825260208201905092915050565b600061070f82610803565b915061071a83610803565b9250827fffffffffffffffffffffffffffffffffffffffffffffffffffffffffffffffff0382111561074f5761074e61083e565b5b828201905092915050565b600061076582610803565b915061077083610803565b9250826107805761077f61086d565b5b828204905092915050565b600061079682610803565b91506107a183610803565b9250828210156107b4576107b361083e565b5b828203905092915050565b60006107ca826107e3565b9050919050565b60006107dc826107e3565b9050919050565b600073ffffffffffffffffffffffffffffffffffffffff82169050919050565b6000819050919050565b600061081882610803565b915061082383610803565b9250826108335761083261086d565b5b828206905092915050565b7f4e487b7100000000000000000000000000000000000000000000000000000000600052601160045260246000fd5b7f4e487b7100000000000000000000000000000000000000000000000000000000600052601260045260246000fd5b7f63616e74206d696e7420746f6b656e7320666f7220746865206f776e65720000600082015250565b7f6163636f756e742062616c616e6365206973206c6f7700000000000000000000600082015250565b6108f7816107bf565b811461090257600080fd5b50565b61090e81610803565b811461091957600080fd5b5056fea2646970667358221220b4d914b8ae953fe3146979c85d8f16a3d5aeadd3db91fd0da9a6381e7da4c75e64736f6c63430008040033",
  "linkReferences": {},
  "deployedLinkReferences": {}
}